:100000000C9434000C9451000C9451000C94510049
:100010000C9451000C9451000C9451000C9451001C
:100020000C9451000C9451000C9451000C9451000C
:100030000C9451000C9451000C9451000C945100FC
:100040000C9451000C9451000C9451000C945100EC
:100050000C9451000C9451000C9451000C945100DC
:100060000C9451000C94510011241FBECFEFD8E026
:10007000DEBFCDBF11E0A0E0B1E0EAE1F3E002C0F5
:1000800005900D92AC3CB107D9F711E0ACECB1E0B2
:1000900001C01D92AD3CB107E1F70E9453000C94E2
:1000A0008B010C940000CF93DF93CDB7DEB761973F
:1000B0000FB6F894DEBF0FBECDBF04B603FC0E949E
:1000C000003F82E08093C0001092C50085E18093DC
:1000D000C40088E18093C100EFE0F1E085E59091F4
:1000E000C00095FFFCCF8093C60081918111F7CFAE
:1000F00031E12AE09091CC018091C00087FFFCCFD4
:100100008091C00087FFFCCF8091C600E92FF0E00E
:10011000E050FF4F40819F5F9093CC01841709F41A
:100120009BC01092CC0190E08F3309F4E7C00CF033
:100130004DC08B3209F49AC08D32F1F68091660081
:10014000815080936600E5E0F1E09FE48091C0007B
:1001500085FFFCCF9093C60091919111F7CF9091BC
:100160006600EAEBF1E0DE011196832F01900D921B
:100170008A95E1F7E92FF0E0F595E795F595E79594
:10018000F595E795F595E79541E050E04C0F5D1F3B
:10019000E40FF51F40818091C00085FFFCCF4093A4
:1001A000C6009F70E1E0F0E0EC0FFD1FE90FF11DCC
:1001B00090818091C00085FFFCCF9093C600809114
:1001C000C00085FFFCCF2093C60094CF8F3609F086
:1001D00093CFE5E0F1E09FE48091C00085FFFCCF84
:1001E0009093C60091919111F7CF90916600EAEB40
:1001F000F1E0DE011196832F01900D928A95E1F7CF
:10020000E92FF0E0F595E795F595E795F595E795F4
:10021000F595E79541E050E04C0F5D1FE40FF51FA9
:1002200040818091C00085FFFCCF4093C6009F7045
:10023000E1E0F0E0EC0FFD1FE90FF11D90818091EE
:10024000C00085FFFCCF9093C6008091C00085FF61
:10025000FCCF2093C6004ECF943009F065CF88E1E3
:100260008093600088E080936000FFCF80916600FB
:100270008F5F80936600E5E0F1E09FE48091C0002D
:1002800085FFFCCF9093C60091919111F7CF90918B
:100290006600EAEBF1E0DE011196832F01900D92EA
:1002A0008A95E1F7E92FF0E0F595E795F595E79563
:1002B000F595E795F595E79541E050E04C0F5D1F0A
:1002C000E40FF51F40818091C00085FFFCCF409373
:1002D000C6009F70E1E0F0E0EC0FFD1FE90FF11D9B
:1002E00090818091C00085FFFCCF9093C6008091E3
:1002F000C00085FFFCCF2093C600FCCEEFE0F1E00C
:1003000095E58091C00085FFFCCF9093C600919148
:0A0310009111F7CFEFCEF894FFCF64
:10031A00747E7A334F534343414C3D3078005573D2
:10032A006520617672323332636C69656E7420744B
:10033A006F20666C61736820612070726F677261EA
:10034A006D20696E746F207468697320656D7074AE
:10035A007920636869702E0A47657420746865207D
:10036A00636C69656E7420617420687474703A2FC6
:10037A002F746563686E696B612E6A756E696F7238
:10038A002E637A2F747261632F77696B692F617696
:10039A0072323332636C69656E742E0A43616C691A
:1003AA006272617465206F7363696C6C61746F72D9
:1003BA00207573696E6720276F272C20272B272C1F
:1003CA0020616E6420272D270A00303132333435FC
:0C03DA00363738396162636465660000E4
:107E0000332714B734BF28E120936000309360001B
:107E100013FD07C02C9A3A95F1F71C9B02C00C94F5
:107E200000002FEF2DBF28E02EBF22E02093C000DE
:107E30003093C50025E12093C40028E12093C100C0
:107E40007AD05437E9F777D05E37D1F774D05A3704
:107E5000B9F771D05333A1F704E174D06CD050312D
:107E600069F0513161F15231B9F1533131F054318E
:107E700019F0543741F3E4CF49C037C05CD0F52F37
:107E80005AD0E52FE07860E456D0052E54D0152E58
:107E900001E007BFE895E395E3956A95A9F7E058F7
:107EA00003E007BFE89507D005E007BFE89503D0DA
:107EB00004E148D0D3CF77B770FDFDCF089501E13D
:107EC00007BFE8953093C1003093C0003093C500E0
:107ED0003093C4000C9400000DE634D003E332D09C
:107EE00002E330D008E32ED0B9CF25D0052E23D021
:107EF000152E21D0252EF999FECF02BC11BCF89A7F
:107F000000B520D013942A94B1F7A8CF14D0052E31
:107F100012D0152E10D0252E0ED0352EF999FECF69
:107F200002BC11BC30BCFA9AF99A13942A94A1F7B6
:107F300004E108D093CF5091C00057FFFCCF50917F
:107F4000C60008958091C00085FBE6F70093C60047
:027F5000089592
:00000001FF
